:020000040800F2
:1000000060070020B101000887120008F50E000803
:1000100083120008710D00088B1700080000000013
:10002000000000000000000000000000F1130008C4
:10003000750D000800000000F91200080515000801
:10004000CB010008CB010008CB010008CB01000860
:10005000CB010008CB010008CB010008CB01000850
:10006000CB010008CB010008CB010008CB01000840
:10007000CB010008CB010008CB010008CB01000830
:10008000CB010008CB010008CB010008CB01000820
:10009000CB010008CB010008CB010008CB01000810
:1000A000CB010008CB010008CB010008CB01000800
:1000B000CB010008CB010008CB010008CB010008F0
:1000C000CB010008CB010008CB010008CB010008E0
:1000D000CB01000869150008CB010008CB0100081E
:1000E000CB010008CB010008CB01000800F002F8AA
:1000F00000F04EF80AA090E8000C82448344AAF174
:100100000107DA4501D100F043F8AFF2090EBAE871
:100110000F0013F0010F18BFFB1A43F0010318473B
:10012000602B0000802B0000103A24BF78C878C1F3
:10013000FAD8520724BF30C830C144BF04680C60ED
:10014000704700000023002400250026103A28BF35
:1001500078C1FBD8520728BF30C148BF0B60704739
:10016000642900F0A380782900F0DC80732900F076
:100170004483002070471FB500F0B6FD0400002046
:10018000002101F085FE401C60601FBD10B510BD50
:1001900000F06EFD1146FFF7EEFF01F003FD00F0E9
:1001A00095FD03B4FFF7F2FF03BC01F06CFB000008
:1001B0000948804709480047FEE7FEE7FEE7FEE7FB
:1001C000FEE7FEE7FEE7FEE7FEE7FEE70448054937
:1001D000054A064B7047000009150008ED000008AD
:1001E0006001002060070020600300206003002001
:1001F000704700000FB4044910B503AA029800F03C
:1002000001FB10BC5DF814FB1800002070B504461B
:1002100085690068C10601D5302600E02026C007A8
:1002200007D070BDD4E9012130469047206A401CB8
:1002300020626D1EF6D570BD70B5044685690078E4
:10024000C00707D170BDD4E9012120209047206A62
:10025000401C20626D1EF6D570BD70B50C4605467B
:10026000012A05D02878800600D5EA69002302E03B
:10027000012305E05B1C934202D2E05C0028F9D127
:10028000A869E618C01AA861286A18442862284696
:10029000FFF7BCFF04E0D5E9012114F8010B9047FA
:1002A000B442F8D32846FFF7C7FF70BD2DE9F041EF
:1002B0000646002410687529314616A510D0AFF304
:1002C0000080002802DA404213A507E031688A075F
:1002D00001D512A502E0490704D511A5012401E0CA
:1002E000AFF3008000210A2206F1240709E0B0FBE9
:1002F000F2FCB0FBF2F302FB1C00303078541846DD
:10030000491C0028F3D123462A463046BDE8F04177
:1003100000F008BA000000002D0000002B000000D3
:100320002000000070B504460D4621461068AFF36A
:1003300000802188090502D50F4A7A4402E00E4A5E
:100340007A440E32002104F1240305E000F00F0688
:100350000009965D5E54491C0028F7D120780023DF
:10036000000704D5702D02D009B1022311322046B6
:10037000BDE8704000F0D6B96A2800002DE9F05FB2
:10038000894604464FF0000ADFF824B1FB44C0F868
:1003900020A02046E168884700287DD0252806D087
:1003A000D4E901219047206A401C2062F1E7002532
:1003B0005F462046E16888472028064607DB312E45
:1003C00005D2B81910F8200C08B10543F1E7A807C9
:1003D00001D525F00405C4F81CA00027C4F818A016
:1003E0002A2E09D0304601F047FA38B304EB8708CB
:1003F000303EC8F8186019E059F8041B204604EB99
:1004000087029161E1688847012F064618D1E069AB
:10041000002820DA25F020051DE0D8F8180000EBB0
:10042000800006EB40003038C8F818002046E1682C
:100430008847064601F020FA0028EED1012F0AD0A5
:100440002E2E08D12046E16888477F1C0646022FE1
:1004500045F02005C4DBA069002803DA404245F0DE
:100460000105A061E80701D025F01005A6B1A6F1AD
:100470004100192802D8203645F400654A46314625
:10048000204625604D46FFF76BFE60B1012807D07E
:10049000ED1D25F0070000E007E000F1080978E70E
:1004A00005F1040975E730467AE7206ABDE8F09F58
:1004B000402800000FB400B58DB010A9099000913C
:1004C0000B904FF0FF300A9000200C9006487844C3
:1004D0000690064878446A4607900F9909A800F0EC
:1004E000B7F90DB05DF814FB9F030000B7030000DF
:1004F0002DE9FF5F1D464FF0FF3B91464FF000088E
:100500005F46D5E90146A96901987F1C8847296A99
:10051000824688470028F6D1BAF1FF3F0CD0002E62
:1005200024F4C06419DD600614D5BAF12B0F09D08C
:10053000BAF12D0F0ED103E0584604B0BDE8F09F8C
:1005400044F48064A96901987F1C8847761E82461E
:10055000002E02DDBAF1300F03D0B9F1000F26D022
:1005600032E0A969761E01987F1C44F40074884724
:10057000002E824605DDBAF1780F06D0BAF1580F89
:1005800003D0B9F1000F10D01EE0B9F1000F02D076
:10059000B9F1100F18D1A969761E01987F1C24F4B7
:1005A000007488478246102002E0082000E00A20FC
:1005B000814609E0A96908FB0908761E01987F1C9D
:1005C00044F4007488478246002E05DD49465046B3
:1005D00000F02AF90028EDDAE96901988847A005BA
:1005E00002D46FF00100A8E7E00725D1600613D51B
:1005F000600502D5C8F1000000E0404629680A1DE8
:100600002A600968220501D5087015E0220701D586
:10061000088011E008600FE02868011D296000686B
:10062000210502D580F8008006E0210702D5A0F858
:10063000008001E0C0F8008038467EE72DE9FF5FCA
:100640004FF000089946144646469169D2E901A741
:10065000DDF838B001988847054659EA0B0005D007
:1006600009E0A1690198761C88470546216A284659
:1006700088470028F5D1681C03D05FEACA7005D00E
:1006800015E04FF0FF3004B0BDE8F09F2068011D79
:100690002160D0F800800AE05FEACA7001D108F852
:1006A000015BA169761C01987F1E88470546002FD3
:1006B0001ADD681C18D0B9F1000F0DD0E81705EB52
:1006C000D060421120F01F0059F822102A1A012090
:1006D00090400142E0D107E0BBF1000FDCD1284699
:1006E000216A88470028D7D0E16901988847BBF183
:1006F000000F07D1002E05DD5FEACA7002D100218C
:1007000088F80010A068B84203DDBBF1000F03D0E9
:1007100017B16FF00100B6E73046B4E77047704795
:10072000704770472DE9F0470D46994692460446BA
:1007300000F124080168880604D5E06921F0100161
:10074000216000E00120A84201DD471B00E00027F6
:10075000A1697A1902EB0900081AA0612078C00685
:1007600002D42046FFF752FD002608E0D4E901211B
:100770001AF806009047206A401C761C20624E45FD
:10078000F4DB2078C0060AD52046FFF73FFD06E0DF
:10079000D4E9012130209047206A401C2062381E95
:1007A000A7F10107F4DC07E0D4E9012118F80500FE
:1007B0009047206A401C2062281EA5F10105F3DC49
:1007C0002046FFF739FD2078000602D50220BDE85B
:1007D000F0870120FBE710B5436913B1AFF3008048
:1007E00001E0FFF73AFD012010BD127800F124016D
:1007F0000A7000224A700122EDE711684FF0FF32C3
:10080000E9E70000074B70B50D467B4400F05FF848
:100810000446284600F028FA10B14FF0FF3070BDB2
:10082000204670BD7B1300003A2800D2303820F0FB
:100830002002412A01D3A2F13700884201D34FF0B0
:10084000FF30704702681144137801601846704702
:10085000D16005497944516104497944116200210C
:100860001161114600F046B8EDFFFFFF5300000094
:10087000426842B1016811F8013B23B1521EC0E940
:100880000012184670470121C160881E70474268F7
:100890005AB1C368016843B983688B4205D0491EC9
:1008A000521CC0E90012002070474FF0FF30704723
:1008B00010B5044600F002FA0068005D00F0010087
:1008C00010BD000001694A1C02610878704700B53C
:1008D0008FB0CDE901310021059105497944CDE979
:1008E000031011466846FFF749FD0FB000BD000038
:1008F000E5FFFFFF2DE9F34F4FF0000A0C46564687
:100900008DB001200C9001F10C000B9062690B98E6
:1009100001219047051E2DD0252D2CD0216A884716
:10092000C0B162690B9801219047216A884700286D
:10093000F7D16269411E0B98904700E0761CA169CF
:100940000D988847216A88470028F7D1E1690D98FA
:100950008847DBE7A1690D988847A842074601D17F
:10096000761CD3E7E1690D9888477F1C02D1BAF164
:10097000000F6FD06BE162690B9800273D46394646
:1009800090472A2804D162690B98012190470125DC
:10099000DFF8D08262690B9801219047A0F1300105
:1009A0000A290AD24745E5DC07EB870100EB41073E
:1009B000303FDFD445F01005ECE7E90601D46FF0D5
:1009C00000476C280AD04C2814D0682815D06A2813
:1009D0000DD074281CD07A281AD01DE062690B98BB
:1009E000012190476C2802D045F0040514E045F041
:1009F00002050DE045F020050AE062690B9801212F
:100A00009047682802D045F0080505E045F40065E8
:100A100062690B9801219047C4E9015765283DD0D0
:100A200019DC58287AD00CDC452837D004DC25287E
:100A300026D041289ED131E046282FD0472899D191
:100A40002CE05B2877D0612828D063287CD06428EC
:100A500023D15AE0F6E06F2848D008DC66281DD084
:100A600067281BD0692821D06E2816D127E070286E
:100A700045D0732868D0752847D078280DD14DE02F
:100A8000A1690D988847252805463FF469AFE169BB
:100A90000D9888476D1C3FF46AAFD8E00D99234646
:100AA0006A466FF00100AFF30080C5E045F04000FA
:100AB00023464FF000026060A80736D43EE0E80706
:100AC0007FF447AF2068011D21600068290501D52A
:100AD00006701BE7290701D5068017E7A90703D58C
:100AE000F117C0E9006111E706600FE745F040002B
:100AF00023464FF008026060A80716D41EE040F6B7
:100B00000E0125EA0100606016E045F04000234632
:100B10004FF00A026060A80707D40FE045F04000DC
:100B20006060A80708D5234610220D996FF00100D8
:100B3000AFF3008080E007E0102223460D996FF0AC
:100B40000100FFF7D5FC77E04FF0000963284F461E
:100B5000C8464B46CB4602D05B2806D038E0E806B4
:100B600001D40120A060012732E06269D4F80CB002
:100B70000B98012190475E2807D14FF001094946A3
:100B80006269D4F80CB00B989047216939B90021FB
:100B90000A4603AB43F82120491C0829FADBD8B3E5
:100BA000216949B308F1010862690B980121904756
:100BB0005D28F4D1B9F1000F09D0002003A951F844
:100BC0002020D24341F82020401C0828F7DB03AB4B
:100BD0002069002820794FEA40701ED05B462246EB
:100BE000CDF80080CDE901970D9900286FF0010044
:100BF00020DAAFF300801FE0C11703AA00EBD16138
:100C00004B1121F01F0102EB8302411A13680120EE
:100C1000884003431360C7E719E00D992246002876
:100C20006FF00100009702DAAFF3008004E0FFF7F5
:100C300005FD01E0AFF3008000280ADA401C06D170
:100C40000C9820B14FF0FF300FB0BDE8F08F504648
:100C5000FAE7E90701D10AF1010A064400200C90E5
:100C600054E60000CCCCCC0C007B00F08000704738
:100C7000754600F035F8AE4605006946534620F04B
:100C80000700854618B020B5FFF7A0FABDE8204060
:100C90004FF000064FF000074FF000084FF0000B38
:100CA00021F00701AC46ACE8C009ACE8C009ACE8EB
:100CB000C009ACE8C0098D467047000010B500F0CF
:100CC00013F8001D10BD00BFC911000010B5044687
:100CD000AFF300802046BDE81040FFF762BA000085
:100CE00000487047FC000020004870471C010020AD
:100CF0004FF0013C50F8042B51F8043B9A4221D1AB
:100D0000A2EB0C03934313EACC1317D150F8042B36
:100D100051F8043B9A4215D1A2EB0C03934313EA1A
:100D2000CC130BD150F8042B51F8043B9A4209D153
:100D3000A2EB0C03934313EACC13DBD04FF000007B
:100D4000704700BFD01A01BAB1FA81F101F0180161
:100D500022FA01F0CB40C1F12001DBB2C0B2C01ACF
:100D60002CFA01F3D11A914311EAC311E6D170476D
:100D700000BFFEE770472DE9F0410246002500263E
:100D8000002000230024002791F803C00CF00F0579
:100D900091F803C00CF0100CBCF1000F03D091F8D7
:100DA00002C04CEA050591F800C0BCF1000F31D03B
:100DB000146800202BE04FF0010C0CFA00F3B1F89E
:100DC00000C00CEA03069E4220D183004FF00F0CB6
:100DD0000CFA03F7BC4305FA03FC4CEA040491F84F
:100DE00003C0BCF1280F06D14FF0010C0CFA00FC37
:100DF000C2F814C00AE091F803C0BCF1480F05D155
:100E00004FF0010C0CFA00FCC2F810C0401C08287E
:100E1000D1D31460B1F800C0BCF1FF0F34DD5468C9
:100E200000202EE000F1080C4FF0010808FA0CF346
:100E3000B1F800C00CEA03069E4221D183004FF0B6
:100E40000F0C0CFA03F7BC4305FA03FC4CEA04044C
:100E500091F803C0BCF1280F05D100F1080C08FA85
:100E60000CF8C2F8148091F803C0BCF1480F07D108
:100E700000F1080C4FF0010808FA0CF8C2F81080D5
:100E8000401C0828CED35460BDE8F0810246002003
:100E900093680B400BB1012000E000207047F8B5CB
:100EA00006460C4615460121082000F027FA012DC0
:100EB0000CD1ADF8004014208DF8030003208DF80C
:100EC000020069463046FFF756FF0BE0ADF80040E0
:100ED00004208DF8030003208DF802006946304697
:100EE000FFF749FFF8BD016170470AB1016100E0F9
:100EF0004161704700BFFEE710B5002202210F4894
:100F0000FFF7F3FF012211460C48FFF7C8FF00224C
:100F100001210A48FFF7E9FF022000F00FFE01223D
:100F200002210648FFF7E1FF022000F007FE002241
:100F300002210248FFF7D9FF10BD0000000C01405C
:100F400010B5012211460948FFF7A9FF012202212D
:100F50000648FFF7A4FF012211460548FFF7C5FF29
:100F6000012202210248FFF7C0FF10BD000C014022
:100F70000008014010B5002202210F48FFF7B5FF1D
:100F8000012211460C48FFF78AFF012211460A4848
:100F9000FFF7ABFF022000F0D1FD0122022106483D
:100FA000FFF7A3FF022000F0C9FD00220221024842
:100FB000FFF79BFF10BD0000000C014070B5054617
:100FC0000024002201211748FFF769FF00261FE0D7
:100FD000002202211348FFF788FF022000F0AEFD37
:100FE000012202210F48FFF780FF6006040E002255
:100FF00001210C48FFF753FF01210A48FFF746FF84
:1010000008B1601CC4B2012000F098FD701CC6B28B
:10101000082EDDDB15B9FFF7ADFF01E0FFF76CFF30
:10102000204670BD000C014070B5044601221146F7
:101030001448FFF734FF002202211248FFF755FF42
:1010400000251BE0E20901210E48FFF74EFF600674
:10105000040E022000F072FD012202210948FFF770
:1010600044FF022000F06AFD002202210548FFF73C
:101070003CFF022000F062FD681CC5B2082DE1DBD8
:1010800070BD0000000C014010B5012211460F4850
:10109000FFF705FF012211460C48FFF726FF01224A
:1010A00002210A48FFF721FF042000F047FD00223B
:1010B00001210648FFF719FF042000F03FFD002240
:1010C00002210248FFF711FF10BD0000000C014093
:1010D00010B5012211460F48FFF7E1FE0022022160
:1010E0000C48FFF702FF002201210A48FFF7FDFE2E
:1010F000042000F023FD012202210648FFF7F5FE3F
:10110000042000F01BFD012211460248FFF7EDFE0E
:1011100010BD0000000C014010B500240022012188
:101120001648FFF7BCFE012211461448FFF7DDFE0A
:10113000012000F003FD012202211048FFF7D5FE37
:10114000012000F0FBFC002201210C48FFF7A7FE64
:1011500007E0601CC4B2FA2C03DDFFF7B9FF0120E1
:1011600010BD01210548FFF791FE0028F1D10022B2
:1011700002210248FFF7B9FE0020F1E7000C014010
:1011800008B50121102000F0B9F84FF40050ADF877
:10119000000010208DF8030003208DF8020069463E
:1011A0000448FFF7E8FD4FF400510248FFF79BFEAB
:1011B00008BD00000010014010B5002480216B2004
:1011C00000F048F8642000F0B9FC00216B2000F02A
:1011D00041F802242146372000F03CF80024214643
:1011E0006A2000F037F800BF21466B2000F032F88B
:1011F00000BF21466C2000F02DF8062421461A205D
:1012000000F028F8182421461B2000F023F80824B9
:1012100021461C2000F01EF810BD70B505460C4696
:10122000FFF732FFD020FFF7FFFEFFF775FF2846DC
:10123000FFF7FAFEFFF770FFFFF726FFD120FFF759
:10124000F3FEFFF769FF0020FFF7B8FE2070FFF7FD
:101250003FFF70BD70B505460C46FFF715FFD02067
:10126000FFF7E2FEFFF758FF2846FFF7DDFEFFF726
:1012700053FF2046FFF7D8FEFFF74EFFFFF728FF8A
:1012800070BD00BFFEE7704770B5002100230F223C
:10129000C47804B3154C246804F4E064C4F5E06435
:1012A000210AC1F10403CA40447804FA03F18478A6
:1012B0001440214309010E4C0678A155047804F02E
:1012C0001F050124AC4005786D11AD0005F1E02546
:1012D000C5F8004109E0047804F01F050124AC4082
:1012E000044D0678761145F8264070BD0CED00E0FF
:1012F00000E400E080E100E07047000029B1064A08
:1013000092690243044B9A6104E0034A9269824362
:10131000014B9A61704700000010024030B5002177
:101320000022002400232D4D6D6805F00C0121B131
:10133000042905D0082923D105E0294D056022E0C4
:10134000274D05601FE0254D6D6805F47012234D93
:101350006D6805F48034022505EB92421CB9214DDD
:10136000554305600BE01D4D6D6805F400351DB15A
:101370001C4D5543056002E0194D5543056002E0E0
:10138000174D056000BF00BF144D6D6805F0F001FA
:101390000909154D6B5C0568DD4045600F4D6D68B2
:1013A00005F4E061090A104D6B5C4568DD4085601D
:1013B0000A4D6D6805F46051C90A0B4D6B5C4568B8
:1013C000DD40C560054D6D6805F44041890B074D52
:1013D0006B5CC568B5FBF3F5056130BD00100240DC
:1013E00000127A0000093D001E0000202E0000209F
:1013F000704710B500F002F810BD00000CB50020D9
:10140000019000903348006840F480303149086012
:1014100000BF3048006800F4003000900198401C84
:101420000190009818B90198B0F5A06FF1D1294842
:10143000006800F4003010B10120009001E00020AD
:1014400000900098012843D12348006840F0100024
:10145000214908600846006820F00300086008463B
:10146000006840F0020008601A4840681949486066
:101470000846406848600846406840F4806048601C
:101480000846406820F47C1048600846406840F4F4
:10149000E81048600846006840F08070086000BFAF
:1014A0000C48006800F000700028F9D00948406836
:1014B00020F00300074948600846406840F00200F9
:1014C000486000BF0348406800F00C000828F9D1CC
:1014D0000CBD00000010024000200240042808D18A
:1014E0004FF0E021096941F004014FF0E022116161
:1014F00007E04FF0E021096921F004014FF0E022FC
:10150000116170477047000010B51348006840F043
:1015100001001149086008464068104908400E491A
:101520004860084600680E4908400B4908600846B4
:10153000006820F4802008600846406820F4FE001F
:1015400048604FF41F008860FFF753FF4FF00060C2
:101550000449086010BD0000001002400000FFF8C0
:10156000FFFFF6FE08ED00E010B540F225511D48E2
:1015700000F04AF810B31B4800F002F9C4B21A4850
:10158000008800F40040C8B91748008800F4804083
:1015900060B10A2C03D000201349088020E01248D3
:1015A000008840F400401049088019E00D2C06D155
:1015B0000D48008840F480400B49088010E00A483C
:1015C0000088C0F30D0009490C5407480088401CEE
:1015D0000549088008460088C72801DD00200880EA
:1015E00010BD0000003801401C0000203400002025
:1015F00021B1828942F40052828104E082894DF651
:10160000FF731A408281704770B5024600240023A0
:101610000025002040F66A16B14200D100BFC1F398
:10162000421501F01F03012606FA03F3012D02D132
:101630009689334006E0022D02D1168A334001E03C
:10164000968A33400C12012606FA04F416883440B8
:1016500013B10CB1012000E0002070BDF0B50346CD
:10166000002400260025002040F66A17B94200D168
:1016700000BF1846C1F3421401F01F06012707FA04
:1016800006F5012C01D10C3004E0022C01D1103000
:1016900000E014301AB107682F43076002E00768C2
:1016A000AF430760F0BD00002DE9F04786B0054666
:1016B0000E460024A24600BFA1460027B08900B113
:1016C00000BF2F462C8A4CF6FF700440F08804437C
:1016D0002C82AC894EF6F3100440B088318908435F
:1016E000718908430443AC81AC8A4FF6FF40044043
:1016F000B0890443AC8201A8FFF710FE1F4887425F
:1017000002D1DDF810A001E0DDF80CA0A88900F4FA
:10171000004040B10AEBCA0000EB0A1031684900F2
:10172000B0FBF1F807E00AEBCA0000EB0A103168E1
:101730008900B0FBF1F86420B8FBF0F00401200947
:10174000642101FB1089A88900F4004040B13220D7
:1017500000EBC900B0FBF1F000F00700044308E023
:10176000322000EB09106421B0FBF1F000F00F0013
:1017700004432C8106B0BDE8F0870000003801402A
:1017800001468888C0F30800704700BFFEE74900A3
:1017900050EAC12018BF04204A0D18BF40F00100D4
:1017A00040F2FF72B2EB515F08BF40F00200012827
:1017B00008BF052070472DE9F0414F1E00EBC7011F
:1017C0000446D1E9000115461E4637F006020DD049
:1017D0002A46334600F0AAFD7F1E04EBC703D3E977
:1017E000002300F06BFB37F00602F1D1022F25D069
:1017F000042F13D0062F18BFBDE8F0812A463346C8
:1018000000F094FDD4E90A2300F058FB2A46334641
:1018100000F08CFDD4E9082300F050FB2A46334643
:1018200000F084FDD4E9062300F048FB2A46334645
:1018300000F07CFDD4E9042300F040FB2A46334647
:1018400000F074FDD4E9022300F038FB2A46334649
:1018500000F06CFDD4E90023BDE8F04100F02EBBA0
:10186000012201F05BB90000024A0020110701F0DB
:1018700055B9000001FDFFFF30380A2801D20120D0
:1018800070470020704700BF704700002DE9F84FF7
:1018900004460D4621F0004000917349814211DC5D
:1018A0007249884201DC06D12CB120462946BDE8A8
:1018B000F84FFFF7D5BF6E48002DCCBF6D496E497C
:1018C000BDE8F88F6D49814211DD6D498142D8BF75
:1018D0004FF0FF366DDD20462946FFF758FF0428FC
:1018E00008BFFFF7C1FF20462946BDE8F88F6549CC
:1018F000654F25F00045814233DD6449814219DDA1
:10190000002632464FF080432046294600F0D6FAA2
:1019100080468A4601222046294601F0FFF800222F
:101920003B4600F00DFE4246534600F077FB04466E
:101930000D463EE001260022BA463B462046294697
:1019400000F0BCFA80460F46002253462046294646
:1019500000F0F6FD42463B4600F060FB04460D46B3
:1019600027E04B4981421BDDDFF828A10226002237
:1019700053462046294600F0D9FC00223B4600F0A1
:101980009DFA80460F46002253462046294600F025
:10199000D7FD42463B4600F041FB04460D4608E0B9
:1019A000032622462B4600203B4900F037FB044625
:1019B0000D4622462B461046194600F0B7FC8B46D2
:1019C000824602460B4600F0B1FC07460246334809
:1019D00088460B4606217844FFF7EDFE52465B46EB
:1019E00000F0A4FC82462E488B463A464346052129
:1019F0007844FFF7E0FE3A46434600F097FC024683
:101A00000B46002E504659460CDA00F057FA224693
:101A10002B4600F08BFC01B022462B46BDE8F04F70
:101A200000F082BD00F04AFA22462B4600F07EFC10
:101A30001C4A7A4402EBC603D3E9002300F080FD80
:101A400022462B4600F07CFD174A7A4402EBC6037F
:101A5000D3E9002300F068FD009A002AB8BF81F0A6
:101A60000041BDE8F88F0000000010440000F07F46
:101A7000182D4454FB21F93FFB21F9BF0000DC3F46
:101A80000000203E0000F33F0000F03F0000E63F72
:101A9000008003400000F83F0000F0BF7612000015
:101AA00034120000D21100009A11000010B56FF03E
:101AB0000400FFF713FD0A4800680A49B0FBF1F083
:101AC000094908800846008800EB4001C1EBC010BE
:101AD0004FF6FF7101EAC0000449088010BD000004
:101AE0000000002000127A001400002016000020E0
:101AF0000146114A12884A434FF0E0235A610022FE
:101B00009A611A46126942F001021A6100BF4FF051
:101B1000E022106900F001021AB100F48032002ABC
:101B2000F5D04FF0E022126922F001024FF0E023DD
:101B30001A6100229A617047160000200146114A7E
:101B400012884A434FF0E0235A6100229A611A46F4
:101B5000126942F001021A6100BF4FF0E0221069E1
:101B600000F001021AB100F48032002AF5D04FF0E3
:101B7000E022126922F001024FF0E0231A610022F4
:101B80009A6170471400002000BF054A128802F0D5
:101B90004002002AF9D0C2B2014B1B1D1A807047C7
:101BA0000038014098B000200F900C900B908246B6
:101BB00000BF00BF002481460A90FFF777FF40F680
:101BC000B830FFF795FFFFF7DBFA4FF4964000F0CF
:101BD0000FF9FFF7B5F9FFF7EFFA4FF47A70FFF757
:101BE00087FF64A0FEF706FB10A811AB12AA67A13D
:101BF000009069A0FEF75EFC12AA6AA0DDE9103130
:101C0000FEF7F8FA0FA97520FFF707FB9DF83C10C7
:101C100068A0FEF7EFFAABE0C820FFF769FF6A485B
:101C2000006808B9012000E00020674908600DA99C
:101C30003B20FFF7F2FA0DF135013C20FFF7EDFAFA
:101C40000DF136013D20FFF7E8FA0DF137013E2096
:101C5000FFF7E3FA0EA93F20FFF7DFFA0DF1390194
:101C60004020FFF7DAFA9DF835009DF8341040EA7D
:101C7000012000B20C909DF837009DF8361040EA24
:101C8000012000B20B909DF839009DF8381040EA11
:101C900001200FFA80FAAAF26C7000F029FE03907E
:101CA0000C9800F025FE4FF07E51019000F038FEB8
:101CB0000290039900F05AFD834600F02BFDCDE918
:101CC0000401FFF7E3FD0022404BCDE9060100F0DF
:101CD0002DFB3F4A3F4BCDE9080100F09FF9054637
:101CE0000E46AAF26C7000F003FE03900B9800F011
:101CF000FFFD4FF07E51019000F012FE029003991B
:101D000000F034FD834600F005FDCDE90401FFF746
:101D1000BDFD00222D4BCDE9060100F007FB2C4A4A
:101D20002C4BCDE9080100F079F907468846284692
:101D3000314600F0CBFA0446002C01DD204601E0DC
:101D4000C4F57A7004463846414600F0BFFA814631
:101D5000B9F1000F01DD484601E0C9F57A7081460E
:101D600000200A904A4621461BA00A9BFEF742FA31
:101D700052E7000068656C6C6F2C69742773206EE5
:101D800069636520646179210D0A000025732025AF
:101D900078202578000000004D6179202034203221
:101DA00030323400646174653A257820257320252B
:101DB000780D0A006465766963652069642069733B
:101DC0002025780D0A000000B40122420080664000
:101DD0001F85EB51B81E094073783A253034647979
:101DE0003A253034647A3A253034646500000000C6
:101DF00010B586B00446012144F20400FFF77EFAD4
:101E00004FF40070ADF8140003208DF81600182070
:101E10008DF8170005A91C48FEF7ADFF4FF4806050
:101E2000ADF8140004208DF8170005A91648FEF738
:101E3000A2FF25208DF8000003208DF801008DF809
:101E4000020001208DF803006846FFF71DFA019497
:101E50000020ADF80800ADF80A00ADF80C00ADF8B0
:101E600010000C20ADF80E0001A90848FFF71CFC7B
:101E7000012240F225510548FFF7F0FB01210348FC
:101E8000FFF7B6FB06B010BD000801400038014066
:101E900010B500290AD00878002807D005487844F2
:101EA000FEF726FF002801D0002010BD024878442C
:101EB00010BD0000020E0000FA0D000010B591EAFE
:101EC000030F48BF83F0004300F14283841A71EB93
:101ED000030C05D2121943EB0C03001B61EB0C0140
:101EE000DFF824E14FEA1154A4EB135C1EEA430F20
:101EF00018BF9EEA445F73D023EA0E03DCF1200E84
:101F000021EA045143F4801332D322FA0CFE10EB81
:101F10000E0023FA0CFE41EB0E01CCF1200E03FA69
:101F20000EFE10EB0E0051F10001B1F5801FCCF157
:101F3000200E32D201EB045112FA0EF2BDE810402D
:101F400058BF7047401C38BF5FEA420218BF704755
:101F5000002814BF20F0010041F100014FEA4103C5
:101F600013F5001F38BF7047A1F1C04100F0D6BA89
:101F7000012A43EB0302ACF1200CDCF11F0E32BF4F
:101F80004FF0000E23FA0CF310EB030041EB045169
:101F9000B4EB115FD0D0A1EB045101F580114908D9
:101FA0005FEA300001EB04510ED350F1000038BF5E
:101FB00012FA0EFE08D1BDE81040C9E7401C38BF38
:101FC0005FEA4202CAD1C3E7BDE810404FEA4103CD
:101FD00013F5001F38BF7047A1F1C04100F09EBA51
:101FE0009EEA445F08D011EA5E0FBDE8104004BFCE
:101FF00001F0004100207047BDE8104070B500F0CE
:102000003FFA00BF64FBBE3E0000E0FF02494FF014
:10201000000000F051BD00BF0000F87F2DE9C04175
:1020200030B4DFF8A0C23CEA111418BF3CEA131424
:1020300000F0EC8081EA03051CEA111444EAD5742F
:1020400018BF1CEA131500F0C780A4EB05044FF07D
:10205000004545EAC12145EAC32341EA505143EA1C
:10206000525304F17F74994204F500344FEAC020C2
:102070004FEAC22208BF904200F09C804FEA1365ED
:102080000FF24016765D4FEA134506FB05F7C7F1E0
:10209000807706FB07F74FEAD737A7FB036876423E
:1020A000C8F58038A7FB06CE38BFA8F1010807FBAA
:1020B00008E64FF0000EA6FB028CE6FB03CEDCF137
:1020C000000CCEF1004E38BFAEF1010EA6FB0C584D
:1020D0004FF000074FF00005E6FB0E87A1FB08C696
:1020E000A0FB07CE16EB0E0645F10005E1FB0765E8
:1020F00015F1E04E7EBFA4F580345FEA46066D41DF
:1021000016F1800745F100054FEA17274FEA0666EA
:1021100047EA0567A6F1DE46B6F1805F4FEA15256E
:102120001FD9384624F0010C05EBC471BCF1FE6FD9
:1021300001EB0C1102D8F0BCBDE8008124425CBF69
:1021400001F5801E9EEAC47F02D4F0BCBDE8008188
:10215000244238D4F0BCA1F1C041BDE8004100F0F8
:10216000DDB94FEAD22242EA43524FEAD323A7FB1A
:1021700002864FEAD02040EA415007FB03661EEA80
:102180000E0F4FEAD12105FB026658BFA6EB0056A1
:10219000B6EB00564FEA520E4EEAC37E18EB0E0E17
:1021A00056EB530EBDD518EB02085E417F1C55F16E
:1021B0000005B6E74FF480154FF000074FF000061A
:1021C0004FF00008ADE7F0BC4FF0000001F1C04156
:1021D00001F00041BDE8008111EA0C1F0CEA131563
:1021E00000D00CE013EA0C1F00F025804FF0000037
:1021F000F0BC81EA030101F00041BDE80081F0BCC0
:10220000BDE8004181EA030100F088B9F0BCBDE8F7
:10221000004170B500F034F9097EFC3E00F007B8CB
:1022200081EA03014FF0000001F00041704781EAAC
:10223000030100F073B9F0BCBDE800414FF00000AD
:1022400021497047FFFDFBF9F7F5F4F2F0EEEDEBF5
:10225000E9E8E6E4E3E1E0DEDDDBDAD8D7D5D4D3A4
:10226000D1D0CFCDCCCBCAC8C7C6C5C4C2C1C0BFF0
:10227000BEBDBCBBBAB9B8B7B6B5B4B3B2B1B0AFF6
:10228000AEADACABAAA9A8A8A7A6A5A4A3A3A2A1DA
:10229000A09F9F9E9D9C9C9B9A9999989797969595
:1022A00095949393929191908F8F8E8E8D8C8C8B31
:1022B0008B8A8989888887878685858484838382B9
:1022C000828181800000FF070000F87F4FEA410310
:1022D0004FEA5353A3F58063D3F11E03C8BFD3F174
:1022E000210C0CDD4FF0004242EAC12242EA50527A
:1022F00032FA03FC8CEAE17CACEBE1707047102B06
:10230000C4BF0020704703F5787CBCF1FF3F04D0C8
:102310006FF0004282EA2100704770B500F0B0F81B
:102320004992248000207047F2E70000DFF848C19E
:1023300070B51CEA111E1EBF1CEA13159EEA0C0F95
:1023400095EA0C0F00F06F8081EA030423EA4C1336
:102350004EEAD47E21EA4C1141F4801143F48013FB
:10236000AE44A1FB024CA0FB0365AEF17F7E3619A3
:1023700055EB0C05A1FB034C4CF10003A0FB021C28
:1023800016EB0C06654153F10003094218BF46F0F5
:10239000010613F4007F0BD14FEA03314FEA0530F9
:1023A000340341EA155140EA16506FF003020AE087
:1023B0004FEAC3214FEAC520F40241EA555140EAF1
:1023C00056506FF0020202EB2E4201EB025585EAF5
:1023D000CE710AD05FEA440C18BF24F0004450F1DB
:1023E000000041F1000120EAD47040F2FE7C624519
:1023F00000D270BDA84214BF4FF080444FF040445B
:10240000002E08BF0024BEF1806FA8BFA1F1C0411B
:10241000BDE8704080F282804FF0000001F1C041C1
:1024200001F0004170479EEA0C0F0CEA131518BF2B
:1024300095EA0C0F06D04FF0000081EA030E0EF073
:10244000004170BD00F01CF88900013E00F007B8A3
:1024500000F009B84FEA430C5FEA5C5C08D081EAFF
:10246000030100F05BB84FEA410C5FEA5C5CF6D117
:102470004FF00000014970470000FF070000F87F9F
:102480000EF1020E2EF0030E5EF8046B364205D4F8
:10249000012A43EB030515F5001F12D8012841EB73
:1024A000010C1CF5001F0CD80ED14FEAD17C15F59C
:1024B000001F0CEB4C0C0CF1020C08BF4CEBD37C56
:1024C00004E04FF0080C01E04FEAD37C0CEB4C0524
:1024D00026FA05F606F00706B6F1040C06D20EEB56
:1024E000860CBDE870404CF0010C6047DFE80CF052
:1024F000090B02024FF000414FF00000A1F500214E
:1025000070BD19461046012851EB010418BFD4F5DF
:10251000001484BF002001F0004170BD0808A0F540
:1025200000114FEA3101704791EA030F10B581F0B5
:1025300000413FF5CBAC83F0004300F009B8000048
:1025400010B591EA030F48BF83F000433FF5BEACDE
:10255000841A71EB030C07D212198CF0004C43EB78
:102560000C03001B61EB0C01DFF8A4E14FEA1154EE
:10257000A4EB135C1EEA430F18BF9EEA445F00F011
:10258000B08023EA6E03524221EA0451C3EB6E038A
:1025900038BF5B1EDCF1200E25D322FA0CFE10EBB7
:1025A0000E0043FA0CFE41EB0E01CCF1200E03FAB3
:1025B0000EFE10EB0E0051F10001CCF1200E29D4DB
:1025C00012FA0EF201EB0451BDE8104058BF7047FB
:1025D000401C1CBFB2F1004F704700280CBF491CC3
:1025E00020F00100704712EB020E43EB030218BF0C
:1025F0004FF0010E4EEA4202ACF1200CDCF11E0E4F
:1026000054D943FA0CFE10EB0E0051F1FF31CCF11E
:102610001E0ED5D50EF1010E12FA0EFE404141EB11
:10262000010101EB445C5FEA5C5C10D910EBDE70E9
:1026300001EB045138BFBEF1004FBDE8104018BF98
:10264000704700280CBF491C20F00100704730D2B1
:102650004FEAD42C11F5001124F400641BD0B1FA18
:1026600081F20B3AA41AA41ED2F12003914030FA51
:1026700003F31943904001EBCC71002C01EB0451A2
:10268000BDE81040A8BF704701F1C0414FF0000005
:1026900001F000417047B0FA80F310FA03F100D165
:1026A00010BDE41A173C4805C90AE4E701EB0451E0
:1026B00010BD491001EB0451BDE810404FEA300055
:1026C00002E04FF0000170474A0008BF0042F8D016
:1026D000B2F5001F28BF704701F000414FF0000025
:1026E00070479EEA445F07D011EA5E0FBDE81040D4
:1026F00004BF002100207047BDE8104070B5FFF70F
:10270000BFFE00BF40DFF63E83F000411046704739
:102710000000E0FF43004FEAD30C4FEA3C0C43407B
:102720001FBF40070CF1605113F0FE4F70471CF0C3
:10273000006F03D100200CF0004170470CF0004303
:1027400043EA507010B540EACC0000F06AF900BFCF
:10275000000000924FEA0001FFF7E0BE4FF0004199
:102760004FF00000A1F50021704700004FF47F0CEE
:102770001CEAD0121EBF1CEAD11392EA0C0F93EA96
:102780000C0F00F0858090EA010F48BF42F4807280
:1027900040F4000C41F400002CF07F4120F07F4019
:1027A00000B58142A2EB03020FF2081CACEB504EC5
:1027B000C0F100009EF800E04FEA4E0E00FB0EFC58
:1027C00038BF49004FEA2C1C02F5FA020CFB0EF34D
:1027D0004FEACE1E4FEA112C4FEAC1210EEB635E89
:1027E00042EB22420EFB0CFC4FEA1C5300FB031190
:1027F0004FEA112C4FEA01310EFB0CFC4FEADC4C86
:1028000000FB0C11C14228BF09184CEB03335DF8E3
:1028100004EB10EB410143EBC250B2F57C0F38BF23
:10282000704729D512F0F00F1CBF00F1C04000F036
:1028300000407047008182838485868788898B8CDD
:102840008D8E8F919293959697999A9C9D9FA0A219
:10285000A3A5A7A8AAACAEB0B2B3B5B7B9BCBEC069
:10286000C2C5C7C9CCCED1D4D7D9DCDFE2E6E9EC0A
:10287000F0F3F7FAFE0000004FEA400C0CF1807C08
:10288000BCF17E4F28BF7047B0F1C04000F00FB9D7
:1028900090EA010F0CEAD11348BF42F480726245FE
:1028A00038BF634507D213F47F0F16D080EA0100CA
:1028B00000F00040704710B500F0B3F8097EFC3E10
:1028C00000F005B880EA010000F00040704780EA9F
:1028D000010000F0004000F0EAB812F47F0F04BFDE
:1028E0000248704780EA010000F0E1B80000C07FB4
:1028F00010F0004148BF4042B0FA80F310FA03F2F2
:10290000C3F19D030BD051EAC35101EB12205306D2
:1029100038BF704700F1010008BF20F00100704788
:102920004FF47F0C1CEAD0121EBF1CEAD11392EAAE
:102930000C0F93EA0C0F00F0478090EA010F48BF9C
:1029400042F480724FF0004C4CEA00204CEA012126
:1029500002EB0302A0FB0113A2F50002002918BF3D
:1029600043F001035B0028BF4FEA330342EB2242EE
:102970005FEA132C4CEBC2502EBFBCEB436FB2F599
:102980007C0F70474FEA036CBCF1004F08BF20F08A
:102990000100B2F57C0F38BF70470BD582F0FF0203
:1029A00012F5803FC8BF704700F1C040D8BF00F0AB
:1029B0000040704700F5000C5FEA4C0C48BF7047C0
:1029C000B0F1C04000F073B890EA010F0CEAD113E7
:1029D00048BF42F48072624538BF634504D280EA42
:1029E000010000F00040704710B500F01AF800BF79
:1029F0008900013E00F007B800F009B85FEA410C19
:102A00005FEA1C6C08D080EA010000F050B85FEA71
:102A1000400C5FEA1C6CF6D14FF00040A0F580003E
:102A200070470EF1020E2EF0030E5EF8044B2442A6
:102A300004D44FEA4102B2F17F4F11D84FEA40036C
:102A4000B3F17F4F0CD80ED14FEAD07CB2F17F4F5B
:102A50000CEB4C0C0CF1020C08BF4CEBD17C04E0ED
:102A60004FF0080C01E04FEAD17C0CEB4C0324FA48
:102A700003F404F00704B4F1040C06D20EEB840C4A
:102A8000BDE810404CF0010C6047DFE80CF007088F
:102A900002024FF00040A0F5800010BD0846420041
:102AA00018BFD2F1807288BF00F0004010BDFF2136
:102AB00041EAD050C00570470CF00F03092B08BF46
:102AC000082000F059800A2B0BD0082B18BF704744
:102AD00008BF1CF0400F0AD04FF000004FF000017B
:102AE00070471CF0400F18BF4FF0004070471CF0BB
:102AF000100F08D020F0704300F07F4242EAD3016B
:102B00004FEA4370704700F0604021F07F4242EA94
:102B1000000201F07F4040EA727070474FF0FF0CF6
:102B20004CF4E06C1CEA11531CBF9CEA030C944566
:102B3000C2BFDA4201EB02517047002B0DD0BCF14D
:102B4000000F0FD0002A01F00041A4BF41F0E04186
:102B500041F07F614FF00000704701F000414FF0FD
:102B60000000704750EA01334FF09B0C18BF4CF047
:102B7000806C7FF44BAA70471CF4801F11D01CF4AA
:102B8000E02F03D06FEACC31490070474FF040503E
:102B9000EFF3008222F0704242EA000282F30088E2
:102BA00070474FF0000070473031323334353637DC
:102BB0003839414243444546403058003031323381
:102BC0003435363738396162636465664030780081
:102BD00004000008000000000000000200010000E6
:102BE00010000000000000004FBB610567ACDD3F36
:102BF000182D4454FB21E93F9BF681D20B73EF3F24
:102C0000182D4454FB21F93FE2652F227F2B7A3C9B
:102C1000075C143326A6813CBDCBF07A8807703C54
:102C2000075C143326A6913CC4EB98999999C9BFC7
:102C3000711623FEC671BCBF6D9A74AFF2B0B3BFFC
:102C40009AFDDE522DDEADBF2F6C6A2C44B4A2BFBC
:102C50000D5555555555D53FFF8300922449C23F28
:102C60006E204CC5CD45B73F513DD0A0660DB13F5C
:102C7000EB0D76244B7BA93F11DA22E33AAD903F6E
:102C8000B02D0008000000203400000028010008DA
:102C9000E42D0008340000202C0700004401000847
:102CA0001001000043000000F8FFFFFF004040401B
:102CB000404040404040414141414140404040400F
:102CC00040404040404040404040404040050202BB
:102CD000020202020202020202020202022020207A
:102CE00020202020202020020202020202029090D6
:102CF00090909090101010101010101010101010D4
:102D00001010101010101010020202020202888827
:102D10008888888808080808080808080808080833
:102D2000080808080808080802020202400000001B
:102D30000000000000000000000000000000000093
:102D40000000000000000000000000000000000083
:102D50000000000000000000000000000000000073
:102D60000000000000000000000000000000000063
:102D70000000000000000000000000000000000053
:102D80000000000000000000000000000000000043
:102D90000000000000000000000000000000000033
:102DA0000000000000000000000000000000000023
:102DB00000A24A0400000000000000000102030419
:102DC00006070809000000000000000000000000E5
:102DD00000000102030401020304060708090204BB
:042DE00006080000E1
:04000005080001B13D
:00000001FF
